{
  "_format": "hh-sol-artifact-1",
  "contractName": "NFT",
  "sourceName": "contracts/NFT.sol",
  "abi": [
    {
      "inputs": [
        {
          "internalType": "string",
          "name": "_name",
          "type": "string"
        },
        {
          "internalType": "string",
          "name": "_symbol",
          "type": "string"
        },
        {
          "internalType": "string",
          "name": "_initBaseURI",
          "type": "string"
        },
        {
          "internalType": "string",
          "name": "_initNotRevealedURI",
          "type": "string"
        }
      ],
      "stateMutability": "nonpayable",
      "type": "constructor"
    },
    {
      "anonymous": false,
      "inputs": [
        {
          "indexed": true,
          "internalType": "address",
          "name": "owner",
          "type": "address"
        },
        {
          "indexed": true,
          "internalType": "address",
          "name": "approved",
          "type": "address"
        },
        {
          "indexed": true,
          "internalType": "uint256",
          "name": "tokenId",
          "type": "uint256"
        }
      ],
      "name": "Approval",
      "type": "event"
    },
    {
      "anonymous": false,
      "inputs": [
        {
          "indexed": true,
          "internalType": "address",
          "name": "owner",
          "type": "address"
        },
        {
          "indexed": true,
          "internalType": "address",
          "name": "operator",
          "type": "address"
        },
        {
          "indexed": false,
          "internalType": "bool",
          "name": "approved",
          "type": "bool"
        }
      ],
      "name": "ApprovalForAll",
      "type": "event"
    },
    {
      "anonymous": false,
      "inputs": [
        {
          "indexed": true,
          "internalType": "address",
          "name": "previousOwner",
          "type": "address"
        },
        {
          "indexed": true,
          "internalType": "address",
          "name": "newOwner",
          "type": "address"
        }
      ],
      "name": "OwnershipTransferred",
      "type": "event"
    },
    {
      "anonymous": false,
      "inputs": [
        {
          "indexed": false,
          "internalType": "address",
          "name": "account",
          "type": "address"
        }
      ],
      "name": "Paused",
      "type": "event"
    },
    {
      "anonymous": false,
      "inputs": [
        {
          "indexed": true,
          "internalType": "address",
          "name": "from",
          "type": "address"
        },
        {
          "indexed": true,
          "internalType": "address",
          "name": "to",
          "type": "address"
        },
        {
          "indexed": true,
          "internalType": "uint256",
          "name": "tokenId",
          "type": "uint256"
        }
      ],
      "name": "Transfer",
      "type": "event"
    },
    {
      "anonymous": false,
      "inputs": [
        {
          "indexed": false,
          "internalType": "address",
          "name": "account",
          "type": "address"
        }
      ],
      "name": "Unpaused",
      "type": "event"
    },
    {
      "inputs": [],
      "name": "TOTAL_SUPPLY",
      "outputs": [
        {
          "internalType": "uint16",
          "name": "",
          "type": "uint16"
        }
      ],
      "stateMutability": "view",
      "type": "function"
    },
    {
      "inputs": [
        {
          "internalType": "address",
          "name": "to",
          "type": "address"
        },
        {
          "internalType": "uint256",
          "name": "tokenId",
          "type": "uint256"
        }
      ],
      "name": "approve",
      "outputs": [],
      "stateMutability": "nonpayable",
      "type": "function"
    },
    {
      "inputs": [
        {
          "internalType": "address",
          "name": "owner",
          "type": "address"
        }
      ],
      "name": "balanceOf",
      "outputs": [
        {
          "internalType": "uint256",
          "name": "",
          "type": "uint256"
        }
      ],
      "stateMutability": "view",
      "type": "function"
    },
    {
      "inputs": [],
      "name": "baseURI",
      "outputs": [
        {
          "internalType": "string",
          "name": "",
          "type": "string"
        }
      ],
      "stateMutability": "view",
      "type": "function"
    },
    {
      "inputs": [],
      "name": "cost",
      "outputs": [
        {
          "internalType": "uint256",
          "name": "",
          "type": "uint256"
        }
      ],
      "stateMutability": "view",
      "type": "function"
    },
    {
      "inputs": [
        {
          "internalType": "uint256",
          "name": "tokenId",
          "type": "uint256"
        }
      ],
      "name": "getApproved",
      "outputs": [
        {
          "internalType": "address",
          "name": "",
          "type": "address"
        }
      ],
      "stateMutability": "view",
      "type": "function"
    },
    {
      "inputs": [
        {
          "internalType": "address",
          "name": "owner",
          "type": "address"
        },
        {
          "internalType": "address",
          "name": "operator",
          "type": "address"
        }
      ],
      "name": "isApprovedForAll",
      "outputs": [
        {
          "internalType": "bool",
          "name": "",
          "type": "bool"
        }
      ],
      "stateMutability": "view",
      "type": "function"
    },
    {
      "inputs": [],
      "name": "maxMintAmount",
      "outputs": [
        {
          "internalType": "uint8",
          "name": "",
          "type": "uint8"
        }
      ],
      "stateMutability": "view",
      "type": "function"
    },
    {
      "inputs": [
        {
          "internalType": "address",
          "name": "to",
          "type": "address"
        },
        {
          "internalType": "uint8",
          "name": "mintAmount",
          "type": "uint8"
        }
      ],
      "name": "mint",
      "outputs": [],
      "stateMutability": "payable",
      "type": "function"
    },
    {
      "inputs": [],
      "name": "name",
      "outputs": [
        {
          "internalType": "string",
          "name": "",
          "type": "string"
        }
      ],
      "stateMutability": "view",
      "type": "function"
    },
    {
      "inputs": [],
      "name": "notRevealedURI",
      "outputs": [
        {
          "internalType": "string",
          "name": "",
          "type": "string"
        }
      ],
      "stateMutability": "view",
      "type": "function"
    },
    {
      "inputs": [],
      "name": "owner",
      "outputs": [
        {
          "internalType": "address",
          "name": "",
          "type": "address"
        }
      ],
      "stateMutability": "view",
      "type": "function"
    },
    {
      "inputs": [
        {
          "internalType": "uint256",
          "name": "tokenId",
          "type": "uint256"
        }
      ],
      "name": "ownerOf",
      "outputs": [
        {
          "internalType": "address",
          "name": "",
          "type": "address"
        }
      ],
      "stateMutability": "view",
      "type": "function"
    },
    {
      "inputs": [],
      "name": "paused",
      "outputs": [
        {
          "internalType": "bool",
          "name": "",
          "type": "bool"
        }
      ],
      "stateMutability": "view",
      "type": "function"
    },
    {
      "inputs": [],
      "name": "renounceOwnership",
      "outputs": [],
      "stateMutability": "nonpayable",
      "type": "function"
    },
    {
      "inputs": [
        {
          "internalType": "address",
          "name": "from",
          "type": "address"
        },
        {
          "internalType": "address",
          "name": "to",
          "type": "address"
        },
        {
          "internalType": "uint256",
          "name": "tokenId",
          "type": "uint256"
        }
      ],
      "name": "safeTransferFrom",
      "outputs": [],
      "stateMutability": "nonpayable",
      "type": "function"
    },
    {
      "inputs": [
        {
          "internalType": "address",
          "name": "from",
          "type": "address"
        },
        {
          "internalType": "address",
          "name": "to",
          "type": "address"
        },
        {
          "internalType": "uint256",
          "name": "tokenId",
          "type": "uint256"
        },
        {
          "internalType": "bytes",
          "name": "_data",
          "type": "bytes"
        }
      ],
      "name": "safeTransferFrom",
      "outputs": [],
      "stateMutability": "nonpayable",
      "type": "function"
    },
    {
      "inputs": [
        {
          "internalType": "address",
          "name": "operator",
          "type": "address"
        },
        {
          "internalType": "bool",
          "name": "approved",
          "type": "bool"
        }
      ],
      "name": "setApprovalForAll",
      "outputs": [],
      "stateMutability": "nonpayable",
      "type": "function"
    },
    {
      "inputs": [
        {
          "internalType": "string",
          "name": "_newBaseURI",
          "type": "string"
        }
      ],
      "name": "setBaseURL",
      "outputs": [],
      "stateMutability": "nonpayable",
      "type": "function"
    },
    {
      "inputs": [
        {
          "internalType": "uint256",
          "name": "_newCost",
          "type": "uint256"
        }
      ],
      "name": "setCost",
      "outputs": [],
      "stateMutability": "nonpayable",
      "type": "function"
    },
    {
      "inputs": [
        {
          "internalType": "uint8",
          "name": "_newMintAmount",
          "type": "uint8"
        }
      ],
      "name": "setMaxMintAmount",
      "outputs": [],
      "stateMutability": "nonpayable",
      "type": "function"
    },
    {
      "inputs": [
        {
          "internalType": "string",
          "name": "_notRevealedURI",
          "type": "string"
        }
      ],
      "name": "setNotRevealedURI",
      "outputs": [],
      "stateMutability": "nonpayable",
      "type": "function"
    },
    {
      "inputs": [],
      "name": "setRevealedTrue",
      "outputs": [],
      "stateMutability": "nonpayable",
      "type": "function"
    },
    {
      "inputs": [
        {
          "internalType": "bytes4",
          "name": "interfaceId",
          "type": "bytes4"
        }
      ],
      "name": "supportsInterface",
      "outputs": [
        {
          "internalType": "bool",
          "name": "",
          "type": "bool"
        }
      ],
      "stateMutability": "view",
      "type": "function"
    },
    {
      "inputs": [
        {
          "internalType": "bool",
          "name": "status",
          "type": "bool"
        }
      ],
      "name": "switchPaused",
      "outputs": [],
      "stateMutability": "nonpayable",
      "type": "function"
    },
    {
      "inputs": [],
      "name": "symbol",
      "outputs": [
        {
          "internalType": "string",
          "name": "",
          "type": "string"
        }
      ],
      "stateMutability": "view",
      "type": "function"
    },
    {
      "inputs": [
        {
          "internalType": "uint256",
          "name": "tokenId",
          "type": "uint256"
        }
      ],
      "name": "tokenURI",
      "outputs": [
        {
          "internalType": "string",
          "name": "",
          "type": "string"
        }
      ],
      "stateMutability": "view",
      "type": "function"
    },
    {
      "inputs": [
        {
          "internalType": "address",
          "name": "from",
          "type": "address"
        },
        {
          "internalType": "address",
          "name": "to",
          "type": "address"
        },
        {
          "internalType": "uint256",
          "name": "tokenId",
          "type": "uint256"
        }
      ],
      "name": "transferFrom",
      "outputs": [],
      "stateMutability": "nonpayable",
      "type": "function"
    },
    {
      "inputs": [
        {
          "internalType": "address",
          "name": "newOwner",
          "type": "address"
        }
      ],
      "name": "transferOwnership",
      "outputs": [],
      "stateMutability": "nonpayable",
      "type": "function"
    }
  ],
  "bytecode": "0x60806040526001600860006101000a81548160ff021916908360ff16021790555060006009556000600a60006101000a81548160ff02191690831515021790555060405180602001604052806000815250600b908051906020019062000067929190620003ae565b5060405180602001604052806000815250600c90805190602001906200008f929190620003ae565b503480156200009d57600080fd5b50604051620043f5380380620043f58339818101604052810190620000c39190620004dc565b83838160009080519060200190620000dd929190620003ae565b508060019080519060200190620000f6929190620003ae565b505050620001196200010d6200016060201b60201c565b6200016860201b60201c565b6000600660146101000a81548160ff02191690831515021790555062000145826200022e60201b60201c565b6200015681620002d960201b60201c565b50505050620007d1565b600033905090565b6000600660009054906101000a900473ffffffffffffffffffffffffffffffffffffffff16905081600660006101000a81548173ffffffffffffffffffffffffffffffffffffffff021916908373ffffffffffffffffffffffffffffffffffffffff1602179055508173ffffffffffffffffffffffffffffffffffffffff168173ffffffffffffffffffffffffffffffffffffffff167f8be0079c531659141344cd1fd0a4f28419497f9722a3daafe3b4186f6b6457e060405160405180910390a35050565b6200023e6200016060201b60201c565b73ffffffffffffffffffffffffffffffffffffffff16620002646200038460201b60201c565b73ffffffffffffffffffffffffffffffffffffffff1614620002bd576040517f08c379a0000000000000000000000000000000000000000000000000000000008152600401620002b490620005f1565b60405180910390fd5b80600b9080519060200190620002d5929190620003ae565b5050565b620002e96200016060201b60201c565b73ffffffffffffffffffffffffffffffffffffffff166200030f6200038460201b60201c565b73ffffffffffffffffffffffffffffffffffffffff161462000368576040517f08c379a00000000000000000000000000000000000000000000000000000000081526004016200035f90620005f1565b60405180910390fd5b80600c908051906020019062000380929190620003ae565b5050565b6000600660009054906101000a900473ffffffffffffffffffffffffffffffffffffffff16905090565b828054620003bc90620006b9565b90600052602060002090601f016020900481019282620003e057600085556200042c565b82601f10620003fb57805160ff19168380011785556200042c565b828001600101855582156200042c579182015b828111156200042b5782518255916020019190600101906200040e565b5b5090506200043b91906200043f565b5090565b5b808211156200045a57600081600090555060010162000440565b5090565b6000620004756200046f846200063c565b62000613565b90508281526020810184848401111562000494576200049362000788565b5b620004a184828562000683565b509392505050565b600082601f830112620004c157620004c062000783565b5b8151620004d38482602086016200045e565b91505092915050565b60008060008060808587031215620004f957620004f862000792565b5b600085015167ffffffffffffffff8111156200051a57620005196200078d565b5b6200052887828801620004a9565b945050602085015167ffffffffffffffff8111156200054c576200054b6200078d565b5b6200055a87828801620004a9565b935050604085015167ffffffffffffffff8111156200057e576200057d6200078d565b5b6200058c87828801620004a9565b925050606085015167ffffffffffffffff811115620005b057620005af6200078d565b5b620005be87828801620004a9565b91505092959194509250565b6000620005d960208362000672565b9150620005e682620007a8565b602082019050919050565b600060208201905081810360008301526200060c81620005ca565b9050919050565b60006200061f62000632565b90506200062d8282620006ef565b919050565b6000604051905090565b600067ffffffffffffffff8211156200065a576200065962000754565b5b620006658262000797565b9050602081019050919050565b600082825260208201905092915050565b60005b83811015620006a357808201518184015260208101905062000686565b83811115620006b3576000848401525b50505050565b60006002820490506001821680620006d257607f821691505b60208210811415620006e957620006e862000725565b5b50919050565b620006fa8262000797565b810181811067ffffffffffffffff821117156200071c576200071b62000754565b5b80604052505050565b7f4e487b7100000000000000000000000000000000000000000000000000000000600052602260045260246000fd5b7f4e487b7100000000000000000000000000000000000000000000000000000000600052604160045260246000fd5b600080fd5b600080fd5b600080fd5b600080fd5b6000601f19601f8301169050919050565b7f4f776e61626c653a2063616c6c6572206973206e6f7420746865206f776e6572600082015250565b613c1480620007e16000396000f3fe6080604052600436106101c25760003560e01c80636c0360eb116100f757806395d89b4111610095578063e985e9c511610064578063e985e9c51461060d578063f2c4ce1e1461064a578063f2fde38b14610673578063fd46d7871461069c576101c2565b806395d89b4114610553578063a22cb4651461057e578063b88d4fde146105a7578063c87b56dd146105d0576101c2565b8063715018a6116100d1578063715018a6146104bb57806372250380146104d25780638da5cb5b146104fd578063902d55a514610528576101c2565b80636c0360eb1461042a57806370a08231146104555780637132ebcd14610492576101c2565b806341bb58111161016457806349f2553a1161013e57806349f2553a1461037d5780635c975abb146103a65780636352211e146103d1578063691562a01461040e576101c2565b806341bb58111461031457806342842e0e1461032b57806344a0d68a14610354576101c2565b8063095ea7b3116101a0578063095ea7b31461026c57806313faede614610295578063239c70ae146102c057806323b872dd146102eb576101c2565b806301ffc9a7146101c757806306fdde0314610204578063081812fc1461022f575b600080fd5b3480156101d357600080fd5b506101ee60048036038101906101e991906129c7565b6106c5565b6040516101fb9190612ee3565b60405180910390f35b34801561021057600080fd5b506102196107a7565b6040516102269190612efe565b60405180910390f35b34801561023b57600080fd5b5061025660048036038101906102519190612a6a565b610839565b6040516102639190612e7c565b60405180910390f35b34801561027857600080fd5b50610293600480360381019061028e919061291a565b6108be565b005b3480156102a157600080fd5b506102aa6109d6565b6040516102b7919061319b565b60405180910390f35b3480156102cc57600080fd5b506102d56109dc565b6040516102e291906131b6565b60405180910390f35b3480156102f757600080fd5b50610312600480360381019061030d9190612804565b6109ef565b005b34801561032057600080fd5b50610329610a4f565b005b34801561033757600080fd5b50610352600480360381019061034d9190612804565b610ae8565b005b34801561036057600080fd5b5061037b60048036038101906103769190612a6a565b610b08565b005b34801561038957600080fd5b506103a4600480360381019061039f9190612a21565b610b8e565b005b3480156103b257600080fd5b506103bb610c24565b6040516103c89190612ee3565b60405180910390f35b3480156103dd57600080fd5b506103f860048036038101906103f39190612a6a565b610c3b565b6040516104059190612e7c565b60405180910390f35b6104286004803603810190610423919061295a565b610ced565b005b34801561043657600080fd5b5061043f610e38565b60405161044c9190612efe565b60405180910390f35b34801561046157600080fd5b5061047c60048036038101906104779190612797565b610ec6565b604051610489919061319b565b60405180910390f35b34801561049e57600080fd5b506104b960048036038101906104b4919061299a565b610f7e565b005b3480156104c757600080fd5b506104d0611020565b005b3480156104de57600080fd5b506104e76110a8565b6040516104f49190612efe565b60405180910390f35b34801561050957600080fd5b50610512611136565b60405161051f9190612e7c565b60405180910390f35b34801561053457600080fd5b5061053d611160565b60405161054a9190613180565b60405180910390f35b34801561055f57600080fd5b50610568611165565b6040516105759190612efe565b60405180910390f35b34801561058a57600080fd5b506105a560048036038101906105a091906128da565b6111f7565b005b3480156105b357600080fd5b506105ce60048036038101906105c99190612857565b61120d565b005b3480156105dc57600080fd5b506105f760048036038101906105f29190612a6a565b61126f565b6040516106049190612efe565b60405180910390f35b34801561061957600080fd5b50610634600480360381019061062f91906127c4565b6113fc565b6040516106419190612ee3565b60405180910390f35b34801561065657600080fd5b50610671600480360381019061066c9190612a21565b611490565b005b34801561067f57600080fd5b5061069a60048036038101906106959190612797565b611526565b005b3480156106a857600080fd5b506106c360048036038101906106be9190612a97565b61161e565b005b60007f80ac58cd000000000000000000000000000000000000000000000000000000007bffffffffffffffffffffffffffffffffffffffffffffffffffffffff1916827bffffffffffffffffffffffffffffffffffffffffffffffffffffffff1916148061079057507f5b5e139f000000000000000000000000000000000000000000000000000000007bffffffffffffffffffffffffffffffffffffffffffffffffffffffff1916827bffffffffffffffffffffffffffffffffffffffffffffffffffffffff1916145b806107a0575061079f826116b8565b5b9050919050565b6060600080546107b690613481565b80601f01602080910402602001604051908101604052809291908181526020018280546107e290613481565b801561082f5780601f106108045761010080835404028352916020019161082f565b820191906000526020600020905b81548152906001019060200180831161081257829003601f168201915b5050505050905090565b600061084482611722565b610883576040517f08c379a000000000000000000000000000000000000000000000000000000000815260040161087a906130c0565b60405180910390fd5b6004600083815260200190815260200160002060009054906101000a900473ffffffffffffffffffffffffffffffffffffffff169050919050565b60006108c982610c3b565b90508073ffffffffffffffffffffffffffffffffffffffff168373ffffffffffffffffffffffffffffffffffffffff16141561093a576040517f08c379a000000000000000000000000000000000000000000000000000000000815260040161093190613120565b60405180910390fd5b8073ffffffffffffffffffffffffffffffffffffffff1661095961178e565b73ffffffffffffffffffffffffffffffffffffffff16148061098857506109878161098261178e565b6113fc565b5b6109c7576040517f08c379a00000000000000000000000000000000000000000000000000000000081526004016109be90613040565b60405180910390fd5b6109d18383611796565b505050565b60095481565b600860009054906101000a900460ff1681565b610a006109fa61178e565b8261184f565b610a3f576040517f08c379a0000000000000000000000000000000000000000000000000000000008152600401610a3690613140565b60405180910390fd5b610a4a83838361192d565b505050565b610a5761178e565b73ffffffffffffffffffffffffffffffffffffffff16610a75611136565b73ffffffffffffffffffffffffffffffffffffffff1614610acb576040517f08c379a0000000000000000000000000000000000000000000000000000000008152600401610ac2906130e0565b60405180910390fd5b6001600a60006101000a81548160ff021916908315150217905550565b610b038383836040518060200160405280600081525061120d565b505050565b610b1061178e565b73ffffffffffffffffffffffffffffffffffffffff16610b2e611136565b73ffffffffffffffffffffffffffffffffffffffff1614610b84576040517f08c379a0000000000000000000000000000000000000000000000000000000008152600401610b7b906130e0565b60405180910390fd5b8060098190555050565b610b9661178e565b73ffffffffffffffffffffffffffffffffffffffff16610bb4611136565b73ffffffffffffffffffffffffffffffffffffffff1614610c0a576040517f08c379a0000000000000000000000000000000000000000000000000000000008152600401610c01906130e0565b60405180910390fd5b80600b9080519060200190610c20929190612596565b5050565b6000600660149054906101000a900460ff16905090565b6000806002600084815260200190815260200160002060009054906101000a900473ffffffffffffffffffffffffffffffffffffffff169050600073ffffffffffffffffffffffffffffffffffffffff168173ffffffffffffffffffffffffffffffffffffffff161415610ce4576040517f08c379a0000000000000000000000000000000000000000000000000000000008152600401610cdb90613080565b60405180910390fd5b80915050919050565b610cf5610c24565b15610d35576040517f08c379a0000000000000000000000000000000000000000000000000000000008152600401610d2c90613020565b60405180910390fd5b60008160ff1611610d4557600080fd5b600860009054906101000a900460ff1660ff168160ff161115610d9d576040517f08c379a0000000000000000000000000000000000000000000000000000000008152600401610d9490613160565b60405180910390fd5b610da76007611b94565b605461ffff16610db7919061337c565b8160ff161115610dc657600080fd5b346009548260ff16610dd89190613322565b1115610de357600080fd5b60005b600860009054906101000a900460ff1660ff168160ff161015610e3357610e0d6007611ba2565b610e2083610e1b6007611b94565b611bb8565b8080610e2b9061352d565b915050610de6565b505050565b600b8054610e4590613481565b80601f0160208091040260200160405190810160405280929190818152602001828054610e7190613481565b8015610ebe5780601f10610e9357610100808354040283529160200191610ebe565b820191906000526020600020905b815481529060010190602001808311610ea157829003601f168201915b505050505081565b60008073ffffffffffffffffffffffffffffffffffffffff168273ffffffffffffffffffffffffffffffffffffffff161415610f37576040517f08c379a0000000000000000000000000000000000000000000000000000000008152600401610f2e90613060565b60405180910390fd5b600360008373ffffffffffffffffffffffffffffffffffffffff1673ffffffffffffffffffffffffffffffffffffffff168152602001908152602001600020549050919050565b610f8661178e565b73ffffffffffffffffffffffffffffffffffffffff16610fa4611136565b73ffffffffffffffffffffffffffffffffffffffff1614610ffa576040517f08c379a0000000000000000000000000000000000000000000000000000000008152600401610ff1906130e0565b60405180910390fd5b6001151581151514156110145761100f611bd6565b61101d565b61101c611c79565b5b50565b61102861178e565b73ffffffffffffffffffffffffffffffffffffffff16611046611136565b73ffffffffffffffffffffffffffffffffffffffff161461109c576040517f08c379a0000000000000000000000000000000000000000000000000000000008152600401611093906130e0565b60405180910390fd5b6110a66000611d1b565b565b600c80546110b590613481565b80601f01602080910402602001604051908101604052809291908181526020018280546110e190613481565b801561112e5780601f106111035761010080835404028352916020019161112e565b820191906000526020600020905b81548152906001019060200180831161111157829003601f168201915b505050505081565b6000600660009054906101000a900473ffffffffffffffffffffffffffffffffffffffff16905090565b605481565b60606001805461117490613481565b80601f01602080910402602001604051908101604052809291908181526020018280546111a090613481565b80156111ed5780601f106111c2576101008083540402835291602001916111ed565b820191906000526020600020905b8154815290600101906020018083116111d057829003601f168201915b5050505050905090565b61120961120261178e565b8383611de1565b5050565b61121e61121861178e565b8361184f565b61125d576040517f08c379a000000000000000000000000000000000000000000000000000000000815260040161125490613140565b60405180910390fd5b61126984848484611f4e565b50505050565b606061127a82611722565b6112b9576040517f08c379a00000000000000000000000000000000000000000000000000000000081526004016112b090613100565b60405180910390fd5b60001515600a60009054906101000a900460ff161515141561136757600c80546112e290613481565b80601f016020809104026020016040519081016040528092919081815260200182805461130e90613481565b801561135b5780601f106113305761010080835404028352916020019161135b565b820191906000526020600020905b81548152906001019060200180831161133e57829003601f168201915b505050505090506113f7565b6000611371611faa565b9050600081511161139157604051806020016040528060008152506113f3565b8061139b8461203c565b6040518060400160405280600581526020017f2e6a736f6e0000000000000000000000000000000000000000000000000000008152506040516020016113e393929190612e4b565b6040516020818303038152906040525b9150505b919050565b6000600560008473ffffffffffffffffffffffffffffffffffffffff1673ffffffffffffffffffffffffffffffffffffffff16815260200190815260200160002060008373ffffffffffffffffffffffffffffffffffffffff1673ffffffffffffffffffffffffffffffffffffffff16815260200190815260200160002060009054906101000a900460ff16905092915050565b61149861178e565b73ffffffffffffffffffffffffffffffffffffffff166114b6611136565b73ffffffffffffffffffffffffffffffffffffffff161461150c576040517f08c379a0000000000000000000000000000000000000000000000000000000008152600401611503906130e0565b60405180910390fd5b80600c9080519060200190611522929190612596565b5050565b61152e61178e565b73ffffffffffffffffffffffffffffffffffffffff1661154c611136565b73ffffffffffffffffffffffffffffffffffffffff16146115a2576040517f08c379a0000000000000000000000000000000000000000000000000000000008152600401611599906130e0565b60405180910390fd5b600073ffffffffffffffffffffffffffffffffffffffff168173ffffffffffffffffffffffffffffffffffffffff161415611612576040517f08c379a000000000000000000000000000000000000000000000000000000000815260040161160990612f60565b60405180910390fd5b61161b81611d1b565b50565b61162661178e565b73ffffffffffffffffffffffffffffffffffffffff16611644611136565b73ffffffffffffffffffffffffffffffffffffffff161461169a576040517f08c379a0000000000000000000000000000000000000000000000000000000008152600401611691906130e0565b60405180910390fd5b80600860006101000a81548160ff021916908360ff16021790555050565b60007f01ffc9a7000000000000000000000000000000000000000000000000000000007bffffffffffffffffffffffffffffffffffffffffffffffffffffffff1916827bffffffffffffffffffffffffffffffffffffffffffffffffffffffff1916149050919050565b60008073ffffffffffffffffffffffffffffffffffffffff166002600084815260200190815260200160002060009054906101000a900473ffffffffffffffffffffffffffffffffffffffff1673ffffffffffffffffffffffffffffffffffffffff1614159050919050565b600033905090565b816004600083815260200190815260200160002060006101000a81548173ffffffffffffffffffffffffffffffffffffffff021916908373ffffffffffffffffffffffffffffffffffffffff160217905550808273ffffffffffffffffffffffffffffffffffffffff1661180983610c3b565b73ffffffffffffffffffffffffffffffffffffffff167f8c5be1e5ebec7d5bd14f71427d1e84f3dd0314c0f7b2291e5b200ac8c7c3b92560405160405180910390a45050565b600061185a82611722565b611899576040517f08c379a000000000000000000000000000000000000000000000000000000000815260040161189090613000565b60405180910390fd5b60006118a483610c3b565b90508073ffffffffffffffffffffffffffffffffffffffff168473ffffffffffffffffffffffffffffffffffffffff16148061191357508373ffffffffffffffffffffffffffffffffffffffff166118fb84610839565b73ffffffffffffffffffffffffffffffffffffffff16145b80611924575061192381856113fc565b5b91505092915050565b8273ffffffffffffffffffffffffffffffffffffffff1661194d82610c3b565b73ffffffffffffffffffffffffffffffffffffffff16146119a3576040517f08c379a000000000000000000000000000000000000000000000000000000000815260040161199a90612f80565b60405180910390fd5b600073ffffffffffffffffffffffffffffffffffffffff168273ffffffffffffffffffffffffffffffffffffffff161415611a13576040517f08c379a0000000000000000000000000000000000000000000000000000000008152600401611a0a90612fc0565b60405180910390fd5b611a1e83838361219d565b611a29600082611796565b6001600360008573ffffffffffffffffffffffffffffffffffffffff1673ffffffffffffffffffffffffffffffffffffffff1681526020019081526020016000206000828254611a79919061337c565b925050819055506001600360008473ffffffffffffffffffffffffffffffffffffffff1673ffffffffffffffffffffffffffffffffffffffff1681526020019081526020016000206000828254611ad0919061329b565b92505081905550816002600083815260200190815260200160002060006101000a81548173ffffffffffffffffffffffffffffffffffffffff021916908373ffffffffffffffffffffffffffffffffffffffff160217905550808273ffffffffffffffffffffffffffffffffffffffff168473ffffffffffffffffffffffffffffffffffffffff167fddf252ad1be2c89b69c2b068fc378daa952ba7f163c4a11628f55a4df523b3ef60405160405180910390a4611b8f8383836121a2565b505050565b600081600001549050919050565b6001816000016000828254019250508190555050565b611bd28282604051806020016040528060008152506121a7565b5050565b611bde610c24565b15611c1e576040517f08c379a0000000000000000000000000000000000000000000000000000000008152600401611c1590613020565b60405180910390fd5b6001600660146101000a81548160ff0219169083151502179055507f62e78cea01bee320cd4e420270b5ea74000d11b0c9f74754ebdbfc544b05a258611c6261178e565b604051611c6f9190612e7c565b60405180910390a1565b611c81610c24565b611cc0576040517f08c379a0000000000000000000000000000000000000000000000000000000008152600401611cb790612f20565b60405180910390fd5b6000600660146101000a81548160ff0219169083151502179055507f5db9ee0a495bf2e6ff9c91a7834c1ba4fdd244a5e8aa4e537bd38aeae4b073aa611d0461178e565b604051611d119190612e7c565b60405180910390a1565b6000600660009054906101000a900473ffffffffffffffffffffffffffffffffffffffff16905081600660006101000a81548173ffffffffffffffffffffffffffffffffffffffff021916908373ffffffffffffffffffffffffffffffffffffffff1602179055508173ffffffffffffffffffffffffffffffffffffffff168173ffffffffffffffffffffffffffffffffffffffff167f8be0079c531659141344cd1fd0a4f28419497f9722a3daafe3b4186f6b6457e060405160405180910390a35050565b8173ffffffffffffffffffffffffffffffffffffffff168373ffffffffffffffffffffffffffffffffffffffff161415611e50576040517f08c379a0000000000000000000000000000000000000000000000000000000008152600401611e4790612fe0565b60405180910390fd5b80600560008573ffffffffffffffffffffffffffffffffffffffff1673ffffffffffffffffffffffffffffffffffffffff16815260200190815260200160002060008473ffffffffffffffffffffffffffffffffffffffff1673ffffffffffffffffffffffffffffffffffffffff16815260200190815260200160002060006101000a81548160ff0219169083151502179055508173ffffffffffffffffffffffffffffffffffffffff168373ffffffffffffffffffffffffffffffffffffffff167f17307eab39ab6107e8899845ad3d59bd9653f200f220920489ca2b5937696c3183604051611f419190612ee3565b60405180910390a3505050565b611f5984848461192d565b611f6584848484612202565b611fa4576040517f08c379a0000000000000000000000000000000000000000000000000000000008152600401611f9b90612f40565b60405180910390fd5b50505050565b6060600b8054611fb990613481565b80601f0160208091040260200160405190810160405280929190818152602001828054611fe590613481565b80156120325780601f1061200757610100808354040283529160200191612032565b820191906000526020600020905b81548152906001019060200180831161201557829003601f168201915b5050505050905090565b60606000821415612084576040518060400160405280600181526020017f30000000000000000000000000000000000000000000000000000000000000008152509050612198565b600082905060005b600082146120b657808061209f906134e4565b915050600a826120af91906132f1565b915061208c565b60008167ffffffffffffffff8111156120d2576120d1613644565b5b6040519080825280601f01601f1916602001820160405280156121045781602001600182028036833780820191505090505b5090505b600085146121915760018261211d919061337c565b9150600a8561212c9190613557565b6030612138919061329b565b60f81b81838151811061214e5761214d613615565b5b60200101907effffffffffffffffffffffffffffffffffffffffffffffffffffffffffffff1916908160001a905350600a8561218a91906132f1565b9450612108565b8093505050505b919050565b505050565b505050565b6121b18383612399565b6121be6000848484612202565b6121fd576040517f08c379a00000000000000000000000000000000000000000000000000000000081526004016121f490612f40565b60405180910390fd5b505050565b60006122238473ffffffffffffffffffffffffffffffffffffffff16612573565b1561238c578373ffffffffffffffffffffffffffffffffffffffff1663150b7a0261224c61178e565b8786866040518563ffffffff1660e01b815260040161226e9493929190612e97565b602060405180830381600087803b15801561228857600080fd5b505af19250505080156122b957506040513d601f19601f820116820180604052508101906122b691906129f4565b60015b61233c573d80600081146122e9576040519150601f19603f3d011682016040523d82523d6000602084013e6122ee565b606091505b50600081511415612334576040517f08c379a000000000000000000000000000000000000000000000000000000000815260040161232b90612f40565b60405180910390fd5b805181602001fd5b63150b7a0260e01b7bffffffffffffffffffffffffffffffffffffffffffffffffffffffff1916817bffffffffffffffffffffffffffffffffffffffffffffffffffffffff191614915050612391565b600190505b949350505050565b600073ffffffffffffffffffffffffffffffffffffffff168273ffffffffffffffffffffffffffffffffffffffff161415612409576040517f08c379a0000000000000000000000000000000000000000000000000000000008152600401612400906130a0565b60405180910390fd5b61241281611722565b15612452576040517f08c379a000000000000000000000000000000000000000000000000000000000815260040161244990612fa0565b60405180910390fd5b61245e6000838361219d565b6001600360008473ffffffffffffffffffffffffffffffffffffffff1673ffffffffffffffffffffffffffffffffffffffff16815260200190815260200160002060008282546124ae919061329b565b92505081905550816002600083815260200190815260200160002060006101000a81548173ffffffffffffffffffffffffffffffffffffffff021916908373ffffffffffffffffffffffffffffffffffffffff160217905550808273ffffffffffffffffffffffffffffffffffffffff16600073ffffffffffffffffffffffffffffffffffffffff167fddf252ad1be2c89b69c2b068fc378daa952ba7f163c4a11628f55a4df523b3ef60405160405180910390a461256f600083836121a2565b5050565b6000808273ffffffffffffffffffffffffffffffffffffffff163b119050919050565b8280546125a290613481565b90600052602060002090601f0160209004810192826125c4576000855561260b565b82601f106125dd57805160ff191683800117855561260b565b8280016001018555821561260b579182015b8281111561260a5782518255916020019190600101906125ef565b5b509050612618919061261c565b5090565b5b8082111561263557600081600090555060010161261d565b5090565b600061264c612647846131f6565b6131d1565b90508281526020810184848401111561266857612667613678565b5b61267384828561343f565b509392505050565b600061268e61268984613227565b6131d1565b9050828152602081018484840111156126aa576126a9613678565b5b6126b584828561343f565b509392505050565b6000813590506126cc81613b6b565b92915050565b6000813590506126e181613b82565b92915050565b6000813590506126f681613b99565b92915050565b60008151905061270b81613b99565b92915050565b600082601f83011261272657612725613673565b5b8135612736848260208601612639565b91505092915050565b600082601f83011261275457612753613673565b5b813561276484826020860161267b565b91505092915050565b60008135905061277c81613bb0565b92915050565b60008135905061279181613bc7565b92915050565b6000602082840312156127ad576127ac613682565b5b60006127bb848285016126bd565b91505092915050565b600080604083850312156127db576127da613682565b5b60006127e9858286016126bd565b92505060206127fa858286016126bd565b9150509250929050565b60008060006060848603121561281d5761281c613682565b5b600061282b868287016126bd565b935050602061283c868287016126bd565b925050604061284d8682870161276d565b9150509250925092565b6000806000806080858703121561287157612870613682565b5b600061287f878288016126bd565b9450506020612890878288016126bd565b93505060406128a18782880161276d565b925050606085013567ffffffffffffffff8111156128c2576128c161367d565b5b6128ce87828801612711565b91505092959194509250565b600080604083850312156128f1576128f0613682565b5b60006128ff858286016126bd565b9250506020612910858286016126d2565b9150509250929050565b6000806040838503121561293157612930613682565b5b600061293f858286016126bd565b92505060206129508582860161276d565b9150509250929050565b6000806040838503121561297157612970613682565b5b600061297f858286016126bd565b925050602061299085828601612782565b9150509250929050565b6000602082840312156129b0576129af613682565b5b60006129be848285016126d2565b91505092915050565b6000602082840312156129dd576129dc613682565b5b60006129eb848285016126e7565b91505092915050565b600060208284031215612a0a57612a09613682565b5b6000612a18848285016126fc565b91505092915050565b600060208284031215612a3757612a36613682565b5b600082013567ffffffffffffffff811115612a5557612a5461367d565b5b612a618482850161273f565b91505092915050565b600060208284031215612a8057612a7f613682565b5b6000612a8e8482850161276d565b91505092915050565b600060208284031215612aad57612aac613682565b5b6000612abb84828501612782565b91505092915050565b612acd816133b0565b82525050565b612adc816133c2565b82525050565b6000612aed82613258565b612af7818561326e565b9350612b0781856020860161344e565b612b1081613687565b840191505092915050565b6000612b2682613263565b612b30818561327f565b9350612b4081856020860161344e565b612b4981613687565b840191505092915050565b6000612b5f82613263565b612b698185613290565b9350612b7981856020860161344e565b80840191505092915050565b6000612b9260148361327f565b9150612b9d82613698565b602082019050919050565b6000612bb560328361327f565b9150612bc0826136c1565b604082019050919050565b6000612bd860268361327f565b9150612be382613710565b604082019050919050565b6000612bfb60258361327f565b9150612c068261375f565b604082019050919050565b6000612c1e601c8361327f565b9150612c29826137ae565b602082019050919050565b6000612c4160248361327f565b9150612c4c826137d7565b604082019050919050565b6000612c6460198361327f565b9150612c6f82613826565b602082019050919050565b6000612c87602c8361327f565b9150612c928261384f565b604082019050919050565b6000612caa60108361327f565b9150612cb58261389e565b602082019050919050565b6000612ccd60388361327f565b9150612cd8826138c7565b604082019050919050565b6000612cf0602a8361327f565b9150612cfb82613916565b604082019050919050565b6000612d1360298361327f565b9150612d1e82613965565b604082019050919050565b6000612d3660208361327f565b9150612d41826139b4565b602082019050919050565b6000612d59602c8361327f565b9150612d64826139dd565b604082019050919050565b6000612d7c60208361327f565b9150612d8782613a2c565b602082019050919050565b6000612d9f602f8361327f565b9150612daa82613a55565b604082019050919050565b6000612dc260218361327f565b9150612dcd82613aa4565b604082019050919050565b6000612de560318361327f565b9150612df082613af3565b604082019050919050565b6000612e08601b8361327f565b9150612e1382613b42565b602082019050919050565b612e27816133fa565b82525050565b612e3681613428565b82525050565b612e4581613432565b82525050565b6000612e578286612b54565b9150612e638285612b54565b9150612e6f8284612b54565b9150819050949350505050565b6000602082019050612e916000830184612ac4565b92915050565b6000608082019050612eac6000830187612ac4565b612eb96020830186612ac4565b612ec66040830185612e2d565b8181036060830152612ed88184612ae2565b905095945050505050565b6000602082019050612ef86000830184612ad3565b92915050565b60006020820190508181036000830152612f188184612b1b565b905092915050565b60006020820190508181036000830152612f3981612b85565b9050919050565b60006020820190508181036000830152612f5981612ba8565b9050919050565b60006020820190508181036000830152612f7981612bcb565b9050919050565b60006020820190508181036000830152612f9981612bee565b9050919050565b60006020820190508181036000830152612fb981612c11565b9050919050565b60006020820190508181036000830152612fd981612c34565b9050919050565b60006020820190508181036000830152612ff981612c57565b9050919050565b6000602082019050818103600083015261301981612c7a565b9050919050565b6000602082019050818103600083015261303981612c9d565b9050919050565b6000602082019050818103600083015261305981612cc0565b9050919050565b6000602082019050818103600083015261307981612ce3565b9050919050565b6000602082019050818103600083015261309981612d06565b9050919050565b600060208201905081810360008301526130b981612d29565b9050919050565b600060208201905081810360008301526130d981612d4c565b9050919050565b600060208201905081810360008301526130f981612d6f565b9050919050565b6000602082019050818103600083015261311981612d92565b9050919050565b6000602082019050818103600083015261313981612db5565b9050919050565b6000602082019050818103600083015261315981612dd8565b9050919050565b6000602082019050818103600083015261317981612dfb565b9050919050565b60006020820190506131956000830184612e1e565b92915050565b60006020820190506131b06000830184612e2d565b92915050565b60006020820190506131cb6000830184612e3c565b92915050565b60006131db6131ec565b90506131e782826134b3565b919050565b6000604051905090565b600067ffffffffffffffff82111561321157613210613644565b5b61321a82613687565b9050602081019050919050565b600067ffffffffffffffff82111561324257613241613644565b5b61324b82613687565b9050602081019050919050565b600081519050919050565b600081519050919050565b600082825260208201905092915050565b600082825260208201905092915050565b600081905092915050565b60006132a682613428565b91506132b183613428565b9250827fffffffffffffffffffffffffffffffffffffffffffffffffffffffffffffffff038211156132e6576132e5613588565b5b828201905092915050565b60006132fc82613428565b915061330783613428565b925082613317576133166135b7565b5b828204905092915050565b600061332d82613428565b915061333883613428565b9250817fffffffffffffffffffffffffffffffffffffffffffffffffffffffffffffffff048311821515161561337157613370613588565b5b828202905092915050565b600061338782613428565b915061339283613428565b9250828210156133a5576133a4613588565b5b828203905092915050565b60006133bb82613408565b9050919050565b60008115159050919050565b60007fffffffff0000000000000000000000000000000000000000000000000000000082169050919050565b600061ffff82169050919050565b600073ffffffffffffffffffffffffffffffffffffffff82169050919050565b6000819050919050565b600060ff82169050919050565b82818337600083830152505050565b60005b8381101561346c578082015181840152602081019050613451565b8381111561347b576000848401525b50505050565b6000600282049050600182168061349957607f821691505b602082108114156134ad576134ac6135e6565b5b50919050565b6134bc82613687565b810181811067ffffffffffffffff821117156134db576134da613644565b5b80604052505050565b60006134ef82613428565b91507fffffffffffffffffffffffffffffffffffffffffffffffffffffffffffffffff82141561352257613521613588565b5b600182019050919050565b600061353882613432565b915060ff82141561354c5761354b613588565b5b600182019050919050565b600061356282613428565b915061356d83613428565b92508261357d5761357c6135b7565b5b828206905092915050565b7f4e487b7100000000000000000000000000000000000000000000000000000000600052601160045260246000fd5b7f4e487b7100000000000000000000000000000000000000000000000000000000600052601260045260246000fd5b7f4e487b7100000000000000000000000000000000000000000000000000000000600052602260045260246000fd5b7f4e487b7100000000000000000000000000000000000000000000000000000000600052603260045260246000fd5b7f4e487b7100000000000000000000000000000000000000000000000000000000600052604160045260246000fd5b600080fd5b600080fd5b600080fd5b600080fd5b6000601f19601f8301169050919050565b7f5061757361626c653a206e6f7420706175736564000000000000000000000000600082015250565b7f4552433732313a207472616e7366657220746f206e6f6e20455243373231526560008201527f63656976657220696d706c656d656e7465720000000000000000000000000000602082015250565b7f4f776e61626c653a206e6577206f776e657220697320746865207a65726f206160008201527f6464726573730000000000000000000000000000000000000000000000000000602082015250565b7f4552433732313a207472616e736665722066726f6d20696e636f72726563742060008201527f6f776e6572000000000000000000000000000000000000000000000000000000602082015250565b7f4552433732313a20746f6b656e20616c7265616479206d696e74656400000000600082015250565b7f4552433732313a207472616e7366657220746f20746865207a65726f2061646460008201527f7265737300000000000000000000000000000000000000000000000000000000602082015250565b7f4552433732313a20617070726f766520746f2063616c6c657200000000000000600082015250565b7f4552433732313a206f70657261746f7220717565727920666f72206e6f6e657860008201527f697374656e7420746f6b656e0000000000000000000000000000000000000000602082015250565b7f5061757361626c653a2070617573656400000000000000000000000000000000600082015250565b7f4552433732313a20617070726f76652063616c6c6572206973206e6f74206f7760008201527f6e6572206e6f7220617070726f76656420666f7220616c6c0000000000000000602082015250565b7f4552433732313a2062616c616e636520717565727920666f7220746865207a6560008201527f726f206164647265737300000000000000000000000000000000000000000000602082015250565b7f4552433732313a206f776e657220717565727920666f72206e6f6e657869737460008201527f656e7420746f6b656e0000000000000000000000000000000000000000000000602082015250565b7f4552433732313a206d696e7420746f20746865207a65726f2061646472657373600082015250565b7f4552433732313a20617070726f76656420717565727920666f72206e6f6e657860008201527f697374656e7420746f6b656e0000000000000000000000000000000000000000602082015250565b7f4f776e61626c653a2063616c6c6572206973206e6f7420746865206f776e6572600082015250565b7f4552433732314d657461646174613a2055524920717565727920666f72206e6f60008201527f6e6578697374656e7420746f6b656e0000000000000000000000000000000000602082015250565b7f4552433732313a20617070726f76616c20746f2063757272656e74206f776e6560008201527f7200000000000000000000000000000000000000000000000000000000000000602082015250565b7f4552433732313a207472616e736665722063616c6c6572206973206e6f74206f60008201527f776e6572206e6f7220617070726f766564000000000000000000000000000000602082015250565b7f63616e6e6f7420657863656564206d61784d696e74416d6f756e740000000000600082015250565b613b74816133b0565b8114613b7f57600080fd5b50565b613b8b816133c2565b8114613b9657600080fd5b50565b613ba2816133ce565b8114613bad57600080fd5b50565b613bb981613428565b8114613bc457600080fd5b50565b613bd081613432565b8114613bdb57600080fd5b5056fea26469706673582212205432dcd8bef89f0143fe1e706e8f0abf042777821a0f302a1727d047fdb663bc64736f6c63430008060033",
  "linkReferences": {},
  "deployedLinkReferences": {}
}